:100000000C945D000C9485000C9485000C94850084
:100010000C9485000C9485000C9485000C9485004C
:100020000C9485000C9485000C9485000C9485003C
:100030000C9485000C9485000C9485000C9485002C
:100040000C94FE000C9485000C9408030C944B0354
:100050000C9485000C9485000C9485000C9485000C
:100060000C9485000C94850000000007000201003C
:100070000003040600000000000000000102040864
:100080001020408001020408102001020408102002
:10009000040404040404040402020202020203032E
:1000A0000303030300000000250028002B000000CC
:1000B0000000240027002A00070411241FBECFEFF0
:1000C000D8E0DEBFCDBF11E0A0E0B1E0E2E7FBE0A9
:1000D00002C005900D92AA32B107D9F711E0AAE249
:1000E000B1E001C01D92AD3DB107E1F710E0CAEBF0
:1000F000D0E004C02297FE010E94B305C83BD1079F
:10010000C9F70E9487000C94B7050C9400000E9468
:1001100098010E94C000C2E4D3E00E94940020979E
:10012000E1F30E944203F9CF68EE73E080E090E0D3
:100130000C947201CF93DF93EC0160E071E083E3F4
:1001400091E00E949B044AE050E0BE0183E391E00D
:100150000E94750561E08C2F0E94350264EF71E00A
:1001600080E090E00E94720160E08C2F0E943502D6
:1001700068EE73E080E090E0DF91CF910C94720123
:1001800040E051EE60E070E083E391E00E9486037E
:100190006CE071E083E391E00E94BA0461E082E0E8
:1001A0000E94FD0161E083E00E94FD0161E084E0C6
:1001B0000E94FD0161E085E00E94FD0161E089E0AF
:1001C0000E94FD0161E08AE00E94FD0182E090E072
:1001D0000E949A0083E090E00E949A0084E090E000
:1001E0000E949A0085E090E00E949A0089E090E0E9
:1001F0000E949A008AE090E00C949A001F920F925D
:100200000FB60F9211242F933F938F939F93AF9329
:10021000BF9380912A0190912B01A0912C01B09164
:100220002D0130913201232F2D5F2D3720F40196BF
:10023000A11DB11D05C0232F2A570296A11DB11D76
:100240002093320180932A0190932B01A0932C01DB
:10025000B0932D0180912E0190912F01A09130013A
:10026000B09131010196A11DB11D80932E01909393
:100270002F01A0933001B0933101BF91AF919F91B5
:100280008F913F912F910F900FBE0F901F90189557
:100290000F931F939FB7F89400912E0110912F0197
:1002A000209130013091310186B5A89B06C08F3F67
:1002B00021F00F5F1F4F2F4F3F4F9FBF322F212F36
:1002C000102F0027080F111D211D311D42E0000FC6
:1002D000111F221F331F4A95D1F7B801C9011F9181
:1002E0000F910895CF92DF92EF92FF92CF93DF9319
:1002F0006B017C010E944801EB010EC00E94480185
:100300006C1B7D0B683E734038F081E0C81AD10841
:10031000E108F108C851DC4FC114D104E104F10433
:1003200069F7DF91CF91FF90EF90DF90CF90089524
:10033000789484B5826084BD84B5816084BD85B5C0
:10034000826085BD85B5816085BDEEE6F0E0808187
:1003500081608083E1E8F0E01082808182608083A8
:10036000808181608083E0E8F0E08081816080832B
:10037000E1EBF0E0808184608083E0EBF0E080815D
:1003800081608083EAE7F0E08081846080838081FF
:1003900082608083808181608083808180688083A7
:1003A0001092C1000895833069F028F48130A1F0E3
:1003B000823011F514C08630B1F08730C1F084303E
:1003C000D9F404C0809180008F7703C080918000B1
:1003D0008F7D80938000089584B58F7702C084B5A7
:1003E0008F7D84BD08958091B0008F7703C0809188
:1003F000B0008F7D8093B0000895CF93DF9390E09D
:10040000FC01E458FF4F4491FC01E057FF4F8491F9
:10041000882341F190E0880F991FFC01E255FF4FBE
:1004200025913491D9018C559F4FFC018591949170
:10043000C82FD92F9FB7F8948C91611106C04095B1
:1004400084238C938881842308C0623041F4242F54
:10045000209582238C938881842B888302C0842BEF
:100460008C939FBFDF91CF9108950F931F93CF93EC
:10047000DF931F92CDB7DEB7282F30E0F901E8599E
:10048000FF4F8491F901E458FF4F1491F901E057AF
:10049000FF4F04910023D1F0882321F069830E944B
:1004A000D3016981E02FF0E0EE0FFF1FEC55FF4F05
:1004B00085919491DC019FB7F8948C91611103C0F0
:1004C0001095812301C0812B8C939FBF0F90DF91EA
:1004D000CF911F910F910895FC0184859585FC01B2
:1004E000E05CFF4F20813181FC01EE5BFF4F80819A
:1004F0009181281B390B2F733327C9010895FC0103
:1005000084859585FC01E05CFF4F40815181FC01B1
:10051000EE5BFF4F208131814217530741F001907C
:10052000F081E02DE80FF91F208130E002C02FEFAD
:100530003FEFC9010895FC0184859585FC01E05CCD
:10054000FF4F40815181FC01EE5BFF4F20813181E3
:100550004217530781F0A081B181A80FB91F8C9178
:10056000208131812F5F3F4F2F73332731832083C9
:10057000282F30E002C02FEF3FEFC9010895FC01A2
:1005800081A1882329F0A489B5898C9186FFFBCFAE
:1005900011A20895CF93DF93FC0126853785D901F9
:1005A000A05CBF4F8D919C91119701968F739927F5
:1005B000E901CE5BDF4F4881598184179507D9F354
:1005C0000D90BC91A02DA20FB31F6C93A685B7858B
:1005D000A05CBF4F11969C938E93A689B7892C91EE
:1005E00081E090E0078C02C0880F991F0A94E2F71F
:1005F000282B2C9381E081A30488F589E02D80814C
:100600008064808381E090E0DF91CF910895089528
:100610001F920F920FB60F9211242F933F934F9377
:100620008F939F93EF93FF938091C00082FD1CC036
:100630004091C6008091D9019091DA0101968F73A3
:1006400099272091DB013091DC018217930771F02B
:10065000E091D901F091DA01E756FE4F4083909383
:10066000DA018093D90102C08091C600FF91EF9119
:100670009F918F914F913F912F910F900FBE0F90AF
:100680001F90189583E391E00E946C02892B11F072
:100690000C94070308951F920F920FB60F92112426
:1006A0002F933F938F939F93EF93FF932091950107
:1006B0003091960180919701909198012817390700
:1006C00031F48091C1008F7D8093C10014C0E0910E
:1006D0009701F0919801EB5AFE4F2081809197018C
:1006E0009091980101968F73992790939801809328
:1006F00097012093C600FF91EF919F918F913F91B9
:100700002F910F900FBE0F901F901895CF92DF92F0
:10071000EF92FF92CF93DF93EC016A017B014115C9
:1007200081EE580761057105F9F0EC89FD8981E0DA
:1007300090E008A002C0880F991F0A94E2F7808316
:1007400060E079E08DE390E0A70196010E948F05BB
:1007500021503109410951095695479537952795FB
:10076000211580E1380798F0EC89FD89108260E856
:1007700074E88EE190E0A70196010E948F05215058
:100780003109410951095695479537952795E889CB
:10079000F9893083EA89FB89208319A2EE89FF89D0
:1007A000408181E090E09C010C8C02C0220F331F3D
:1007B0000A94E2F7422B4083EE89FF8940819C0135
:1007C0000D8C02C0220F331F0A94E2F7422B4083A4
:1007D000EE89FF8940819C010E8C02C0220F331FDD
:1007E0000A94E2F7422B4083EE89FF8920810F8C27
:1007F00002C0880F991F0A94E2F7809582238083B4
:10080000DF91CF91FF90EF90DF90CF9008951092FD
:1008100036011092350188EE93E0A0E0B0E08093BD
:10082000370190933801A0933901B0933A018EE1DA
:1008300091E0909334018093330189E991E09093A2
:10084000400180933F0185E591E0909342018093C0
:10085000410185EC90E0909344018093430184EC46
:1008600090E0909346018093450180EC90E0909356
:1008700048018093470181EC90E090934A01809376
:10088000490182EC90E090934C0180934B0186ECFF
:1008900090E090934E0180934D0184E080934F014E
:1008A00083E08093500187E08093510185E080933D
:1008B000520181E0809353010895CF92DF92EF922D
:1008C000FF920F931F93CF93DF936C01EB017A019B
:1008D000E60EF71E00E010E00BC06991D601ED9125
:1008E000FC910190F081E02DC6010995080F191FB8
:1008F000CE15DF0591F7C801DF91CF911F910F91C0
:10090000FF90EF90DF90CF9008956115710581F011
:10091000DB010D900020E9F7AD0141505109461B64
:10092000570BDC01ED91FC910280F381E02D0994DD
:1009300080E090E008950C948504DC01ED91FC9139
:100940000190F081E02D09940F931F93CF93DF93D3
:10095000EC016DE00E949D048C016AE0CE010E94D2
:100960009D049C01200F311FC901DF91CF911F9180
:100970000F9108950F931F93CF93DF93EC010E9483
:1009800085048C01CE010E94A4049801280F391F10
:10099000C901DF91CF911F910F9108954F925F92FE
:1009A0006F927F929F92AF92BF92CF92DF92EF921F
:1009B000FF920F931F93CF93DF93CDB7DEB7A1972D
:1009C0000FB6F894DEBF0FBECDBF5C016A017B019C
:1009D000922E19A281E0821710F08AE0982E8E01E3
:1009E0000F5D1F4F492C512C612C712CC701B60192
:1009F000A30192010E948F058C2D929E80191124D3
:100A0000015011098A3014F4805D01C0895CF8013D
:100A1000808369017A01C114D104E104F10431F742
:100A2000B801C5010E948504A1960FB6F894DEBFF7
:100A30000FBECDBFDF91CF911F910F91FF90EF902F
:100A4000DF90CF90BF90AF909F907F906F905F901E
:100A50004F900895CF92DF92EF92FF920F931F93E2
:100A6000CF93DF93EC016A017B012115310579F405
:100A7000E881F9810190F081E02D642FDF91CF9121
:100A80001F910F91FF90EF90DF90CF9009942A3043
:100A9000310519F477FD0EC02AE0B701A601CE0199
:100AA000DF91CF911F910F91FF90EF90DF90CF904A
:100AB0000C94CE046DE20E949D048C0144275527BE
:100AC000BA014C195D096E097F092AE0CE010E9426
:100AD000CE04080F191FC801DF91CF911F910F910C
:100AE000FF90EF90DF90CF9008950F931F93CF93D7
:100AF000DF93EC019A01AB01662757FD6095762FD5
:100B00000E942A058C01CE010E94A4049801280F9E
:100B1000391FC901DF91CF911F910F910895A1E273
:100B20001A2EAA1BBB1BFD010DC0AA1FBB1FEE1F67
:100B3000FF1FA217B307E407F50720F0A21BB30BB2
:100B4000E40BF50B661F771F881F991F1A9469F72E
:100B500060957095809590959B01AC01BD01CF018A
:100B60000895EE0FFF1F0590F491E02D0994F8947D
:020B7000FFCFB5
:100B720074657374696E672070696E005374617274
:100B820074696E67204156520A0000000000CA02D2
:0A0B92005D046C029B027F02BF02AB
:00000001FF
